:020000040800F2
:100000003004002001010008C9020008890200082C
:10001000C502000865010008B308000800000000E0
:10002000000000000000000000000000350400088F
:1000300069010008000000003D03000821050008D8
:100040001B0100081B0100081B0100081B01000820
:100050001B0100081B0100081B0100081B01000810
:100060001B0100081B0100081B0100081B01000800
:100070001B0100081B0100081B0100081B010008F0
:100080001B0100081B0100081B0100081B010008E0
:100090001B0100081B0100081B0100081B010008D0
:1000A0001B0100081B0100081B0100081B010008C0
:1000B0001B0100081B0100081B0100081B010008B0
:1000C0001B0100081B0100081B0100081B010008A0
:1000D0001B010008A10500081B0100081B01000806
:1000E0001B0100081B0100081B010008DFF80CD0F1
:1000F00000F026F8004800472D09000830040020D1
:100100000648804706480047FEE7FEE7FEE7FEE7B1
:10011000FEE7FEE7FEE7FEE7FEE7FEE7290500084B
:10012000ED00000810B5002200E0521C835C8C5CDE
:10013000A34201D1002BF8D1D8B2E1B2401A10BDD0
:10014000064C074D06E0E06840F0010394E8070024
:1001500098471034AC42F6D3FFF7CCFF50090008A3
:100160007009000800BFFEE770472DE9F041024624
:1001700000250026002000230024002791F803C05A
:100180000CF00F0591F803C00CF0100CBCF1000F3F
:1001900003D091F802C04CEA050591F800C0BCF10B
:1001A000000F31D0146800202BE04FF0010C0CFA46
:1001B00000F3B1F800C00CEA03069E4220D1830090
:1001C0004FF00F0C0CFA03F7BC4305FA03FC4CEAA2
:1001D000040491F803C0BCF1280F06D14FF0010CC4
:1001E0000CFA00FCC2F814C00AE091F803C0BCF19C
:1001F000480F05D14FF0010C0CFA00FCC2F810C0FA
:10020000401C0828D1D31460B1F800C0BCF1FF0F26
:1002100034DD546800202EE000F1080C4FF0010896
:1002200008FA0CF3B1F800C00CEA03069E4221D193
:1002300083004FF00F0C0CFA03F7BC4305FA03FCE4
:100240004CEA040491F803C0BCF1280F05D100F179
:10025000080C08FA0CF8C2F8148091F803C0BCF13D
:10026000480F07D100F1080C4FF0010808FA0CF80C
:10027000C2F81080401C0828CED35460BDE8F0813D
:10028000416170470161704700BFFEE708B5012179
:10029000042000F055F84FF48070ADF800001020F5
:1002A0008DF8030003208DF8020069460448FFF72B
:1002B0005CFF4FF480710248FFF7E4FF08BD0000C7
:1002C0000008014000BFFEE77047000070B5002144
:1002D00000230F22C47804B3154C246804F4E064AE
:1002E000C4F5E064210AC1F10403CA40447804FA69
:1002F00003F184781440214309010E4C0678A1557E
:10030000047804F01F050124AC4005786D11AD00A0
:1003100005F1E025C5F8004109E0047804F01F0567
:100320000124AC40044D0678761145F8264070BD96
:100330000CED00E000E400E080E100E07047000028
:1003400029B1064A92690243044B9A6104E0034AC8
:1003500092698243014B9A6170470000001002408D
:1003600030B500210022002400232D4D6D6805F0DA
:100370000C0121B1042905D0082923D105E0294D1C
:10038000056022E0274D05601FE0254D6D6805F4EE
:100390007012234D6D6805F48034022505EB9242FE
:1003A0001CB9214D554305600BE01D4D6D6805F4EA
:1003B00000351DB11C4D5543056002E0194D5543F4
:1003C000056002E0174D056000BF00BF144D6D6869
:1003D00005F0F0010909154D6B5C0568DD404560CD
:1003E0000F4D6D6805F4E061090A104D6B5C4568BE
:1003F000DD4085600A4D6D6805F46051C90A0B4DFA
:100400006B5C4568DD40C560054D6D6805F4404195
:10041000890B074D6B5CC568B5FBF3F5056130BD15
:100420000010024000127A0000093D000000002088
:1004300010000020704710B500F002F810BD000059
:100440000CB50020019000903348006840F48030E3
:100450003149086000BF3048006800F40030009067
:100460000198401C0190009818B90198B0F5A06F50
:10047000F1D12948006800F4003010B1012000904B
:1004800001E0002000900098012843D12348006833
:1004900040F01000214908600846006820F0030081
:1004A00008600846006840F0020008601A4840688A
:1004B000194948600846406848600846406840F46A
:1004C000806048600846406820F47C104860084618
:1004D000406840F4E81048600846006840F08070CA
:1004E000086000BF0C48006800F000700028F9D0D8
:1004F0000948406820F00300074948600846406802
:1005000040F00200486000BF0348406800F00C0063
:100510000828F9D10CBD0000001002400020024064
:1005200010B500F031F810BD10B51348006840F068
:1005300001001149086008464068104908400E490A
:100540004860084600680E4908400B4908600846A4
:10055000006820F4802008600846406820F4FE000F
:1005600048604FF41F008860FFF765FF4FF00060A0
:100570000449086010BD0000001002400000FFF8B0
:10058000FFFFF6FE08ED00E00448006820B10348D4
:100590000068401E014908607047000018000020F4
:1005A00010B540F225511F4800F0BFF8002837D0A1
:1005B0001C4800F075F9C4B20A2C01D00D2C22D1D0
:1005C00000201949194A127888541849087018A14E
:1005D0001548FFF7A7FD40B94FF480711548FFF7A4
:1005E00051FE15A000F068F919E016A10E48FFF7BA
:1005F00099FDA0B94FF480710E48FFF741FE12A09B
:1006000000F05AF90BE0094800780F2807D2074894
:1006100001780078401C054A10700348445400BF1C
:1006200010BD000000380140200000201400002010
:100630004F4E0000000801404C4544204F4E200D15
:10064000000000004F4646004C4544204F464620DF
:100650000D00000000B587B0012144F20400FFF74F
:100660006FFE4FF40070ADF8180018208DF81B00D5
:1006700003208DF81A0006A91D48FFF776FD4FF4F8
:100680008060ADF8180004208DF81B0006A91848FA
:10069000FFF76BFD4FF4165002900020ADF80C00F0
:1006A000ADF80E00ADF810000C20ADF812000020DF
:1006B000ADF8140002A90F4800F086F801210D489A
:1006C00000F01AF8012240F225510A4800F057F8CC
:1006D00025208DF8040000208DF805008DF8060017
:1006E00001208DF8070001A8FFF7F0FD07B000BD5D
:1006F000000801400038014021B1828942F40052D3
:10070000828104E082894DF6FF731A40828170472E
:1007100002460020B1F5007F00D100BF13880B40D6
:100720000BB1012000E00020704770B502460024A4
:1007300000230025002040F66A16B14200D100BF18
:10074000C1F3421501F01F03012606FA03F3012D40
:1007500002D19689334006E0022D02D1168A334039
:1007600001E0968A33400C12012606FA04F416883A
:10077000344013B10CB1012000E0002070BDF0B591
:100780000346002400260025002040F66A17B942DF
:1007900000D100BF1846C1F3421401F01F06012723
:1007A00007FA06F5012C01D10C3004E0022C01D12E
:1007B000103000E014301AB107682F43076002E0E0
:1007C0000768AF430760F0BD2DE9F04786B00546E6
:1007D0000E460024A24600BFA1460027B08900B102
:1007E00000BF2F462C8A4CF6FF700440F08804436B
:1007F0002C82AC894EF6F3100440B088318908434E
:10080000718908430443AC81AC8A4FF6FF40044031
:10081000B0890443AC8201A8FFF7A2FD1F488742BC
:1008200002D1DDF810A001E0DDF80CA0A88900F4E9
:10083000004040B10AEBCA0000EB0A1031684900E1
:10084000B0FBF1F807E00AEBCA0000EB0A103168D0
:100850008900B0FBF1F86420B8FBF0F00401200936
:10086000642101FB1089A88900F4004040B13220C6
:1008700000EBC900B0FBF1F000F00700044308E012
:10088000322000EB09106421B0FBF1F000F00F0002
:1008900004432C8106B0BDE8F08700000038014019
:1008A00001468888C0F308007047C1F308028280BF
:1008B000704700BFFEE70000014A024900F013B88C
:1008C000090900081C00002002E008C8121F08C126
:1008D000002AFAD170477047002001E001C1121FC1
:1008E000002AFBD170472DE9F04116460F46044619
:1008F000002503E03946B047641C6D1C20780028B1
:10090000F8D12846BDE8F08170B504460D46E1B245
:100910000548FFF7CAFF00BF40210348FFF7F8FE74
:100920000028F9D0204670BD00380140FFF7FCFDDB
:10093000FFF790FEFFF7AAFC02A0FFF7BDFF00BF84
:10094000FEE7000048656C6C6F205174210D0A00B1
:10095000700900080000002020000000C8080008FE
:10096000900900082000002010040000D8080008AA
:100970000000000001020304010203040607080945
:100980000204060800000000000000000000000053
:04000005080000ED02
:00000001FF
